{
  "address": "0x2906d67A0929e1E6C9102AA4d97e1f1F9B112153",
  "abi": [
    {
      "anonymous": false,
      "inputs": [
        {
          "indexed": false,
          "internalType": "string",
          "name": "data",
          "type": "string"
        }
      ],
      "name": "DidSetData",
      "type": "event"
    },
    {
      "inputs": [],
      "name": "data",
      "outputs": [
        {
          "internalType": "string",
          "name": "",
          "type": "string"
        }
      ],
      "stateMutability": "view",
      "type": "function"
    },
    {
      "inputs": [
        {
          "internalType": "string",
          "name": "data_",
          "type": "string"
        }
      ],
      "name": "setData",
      "outputs": [],
      "stateMutability": "nonpayable",
      "type": "function"
    }
  ],
  "transactionHash": "0xa30c8694b8207bbb3b493411b72057ddaf3d4cccef7bf1efdf5182d17dacf548",
  "args": [],
  "numDeployments": 1,
  "solcInputHash": "5449ec9b882a7c7d81dee28abcfd8b23",
  "bytecode": "0x608060405234801561001057600080fd5b50610427806100206000396000f3fe608060405234801561001057600080fd5b50600436106100365760003560e01c806347064d6a1461003b57806373d4a13a14610050575b600080fd5b61004e610049366004610146565b61006e565b005b6100586100b8565b60405161006591906101b8565b60405180910390f35b600061007b8284836102a5565b507f0aa27bc969ca2f2c0231e7e735818c143ba3cb7c69477e1d2ecddf587506430f60006040516100ac9190610366565b60405180910390a15050565b600080546100c59061021c565b80601f01602080910402602001604051908101604052809291908181526020018280546100f19061021c565b801561013e5780601f106101135761010080835404028352916020019161013e565b820191906000526020600020905b81548152906001019060200180831161012157829003601f168201915b505050505081565b6000806020838503121561015957600080fd5b823567ffffffffffffffff8082111561017157600080fd5b818501915085601f83011261018557600080fd5b81358181111561019457600080fd5b8660208285010111156101a657600080fd5b60209290920196919550909350505050565b600060208083528351808285015260005b818110156101e5578581018301518582016040015282016101c9565b506000604082860101526040601f19601f8301168501019250505092915050565b634e487b7160e01b600052604160045260246000fd5b600181811c9082168061023057607f821691505b60208210810361025057634e487b7160e01b600052602260045260246000fd5b50919050565b601f8211156102a057600081815260208120601f850160051c8101602086101561027d5750805b601f850160051c820191505b8181101561029c57828155600101610289565b5050505b505050565b67ffffffffffffffff8311156102bd576102bd610206565b6102d1836102cb835461021c565b83610256565b6000601f84116001811461030557600085156102ed5750838201355b600019600387901b1c1916600186901b17835561035f565b600083815260209020601f19861690835b828110156103365786850135825560209485019460019092019101610316565b50868210156103535760001960f88860031b161c19848701351681555b505060018560011b0183555b5050505050565b600060208083526000845461037a8161021c565b8084870152604060018084166000811461039b57600181146103b5576103e3565b60ff1985168984015283151560051b8901830195506103e3565b896000528660002060005b858110156103db5781548b82018601529083019088016103c0565b8a0184019650505b50939897505050505050505056fea264697066735822122062f25627a0a210defd623ac17d8d1182deceecbefe1a7a5b5bb87078b169606764736f6c63430008140033",
  "devdoc": {
    "kind": "dev",
    "methods": {},
    "version": 1
  },
  "userdoc": {
    "kind": "user",
    "methods": {},
    "version": 1
  },
  "storageLayout": {
    "storage": [
      {
        "astId": 3,
        "contract": "contracts/SimpleStorage.sol:SimpleStorage",
        "label": "data",
        "offset": 0,
        "slot": "0",
        "type": "t_string_storage"
      }
    ],
    "types": {
      "t_string_storage": {
        "encoding": "bytes",
        "label": "string",
        "numberOfBytes": "32"
      }
    }
  }
}